:100000000C9434000C9451000C9451000C94510049
:100010000C9451000C9451000C9451000C9451001C
:100020000C9451000C9451000C9451000C9451000C
:100030000C9451000C9451000C9451000C945100FC
:100040000C9451000C9451000C9451000C945100EC
:100050000C9451000C9451000C9451000C945100DC
:100060000C9451000C94510011241FBECFEFD8E026
:10007000DEBFCDBF12E0A0E0B1E0E6EFF8E202C0E3
:1000800005900D92AE30B107D9F712E0AEE0B2E0C4
:1000900001C01D92A131B107E1F70E94960C0C94AA
:1000A00079140C940000EF92FF920F931F937B0141
:1000B0008C0120E030E040E05FE40E94FF038823F1
:1000C0008CF0C801B70120E030E040E05FE40E941E
:1000D000CB010E94BD049B01AC0120503040404048
:1000E000504806C0C801B7010E94BD049B01AC0185
:1000F000B901CA011F910F91FF90EF900895A0E000
:10010000B0E0E5E8F0E00C944214DC012B01FA01C8
:100110009C91923008F439C1EB018881823008F457
:1001200033C1943069F4843009F02FC111969C9149
:1001300011978981981709F428C1A0E0B1E025C181
:10014000843009F421C18230A9F4923009F01DC134
:100150009A01AD0188E0EA010990AE01E901099236
:100160009E018150C1F7E201898111969C918923FA
:10017000818308C1923009F407C112962D903C90FA
:100180001397EB018A819B811496AD90BD90CD9021
:10019000DC901797EC80FD800E811F819101281B58
:1001A000390BB90137FF04C066277727621B730B31
:1001B000603271050CF061C0121613066CF5370140
:1001C0004801062E04C096948794779467940A9405
:1001D000D2F721E030E040E050E004C0220F331FAE
:1001E000441F551F6A95D2F721503040404050407F
:1001F0002E213F2140235123211531054105510571
:1002000021F021E030E040E050E079018A01E62869
:10021000F728082919293CC0232BD1F1260E371EB7
:1002200035014601062E04C096948794779467940E
:100230000A94D2F721E030E040E050E004C0220F01
:10024000331F441F551F6A95D2F72150304040405C
:1002500050402A213B214C215D21211531054105CA
:10026000510521F021E030E040E050E059016A0101
:10027000A628B728C828D9280BC0821593052CF0CA
:100280001C01AA24BB24650103C0EE24FF248701BE
:1002900011969C91D20111968C91981709F445C042
:1002A000992339F0A80197012A193B094C095D09E6
:1002B00006C0A60195012E193F09400B510B57FDB1
:1002C00008C0118233822282248335834683578378
:1002D0001DC081E081833382228288279927DC0137
:1002E000821B930BA40BB50B84839583A683B783E2
:1002F0000DC0220F331F441F551F248335834683AF
:1003000057838281938101979383828324813581EE
:1003100046815781DA01C9010197A109B1098F5FAF
:100320009F4FAF4FBF4328F30BC09183338222828C
:10033000EA0CFB1C0C1D1D1DE482F582068317834D
:1003400083E08083248135814681578157FF1AC01D
:10035000C901AA2797FDA095BA2F81709070A0704F
:10036000B0705695479537952795822B932BA42BE4
:10037000B52B84839583A683B7838281938101966D
:1003800093838283DF0101C0D201CD01CDB7DEB7F7
:10039000E2E10C945E14A0E2B0E0E1EDF1E00C9437
:1003A0004E1469837A838B839C832D833E834F8392
:1003B0005887E9E0EE2EF12CEC0EFD1ECE010196E1
:1003C000B7010E9435068E010F5E1F4FCE010596C4
:1003D000B8010E9435068A8991E089278A8BC70176
:1003E000B801AE01475E5F4F0E947F000E9460052A
:1003F000A096E6E00C946A14A0E2B0E0E2E0F2E03D
:100400000C944E1469837A838B839C832D833E8363
:100410004F835887F9E0EF2EF12CEC0EFD1ECE0134
:100420000196B7010E9435068E010F5E1F4FCE0167
:100430000596B8010E943506C701B801AE01475EB6
:100440005F4F0E947F000E946005A096E6E00C943A
:100450006A14A0E2B0E0EFE2F2E00C944214698387
:100460007A838B839C832D833E834F835887CE0171
:100470000196BE01675F7F4F0E943506CE0105964B
:10048000BE016F5E7F4F0E9435069985923088F0DD
:1004900089898230C8F0943019F4823051F404C054
:1004A000843029F4923081F480E091E0C6C092302B
:1004B00049F420E09A858A89981321E02A87CE01A1
:1004C0000996BBC0823049F420E09A858A89981346
:1004D00021E02A8BCE014196B0C02D843E844F840A
:1004E00058886D887E888F88988CEE24FF24870139
:1004F000AA24BB24650140E050E060E070E0E0E049
:10050000F0E0C10181709070892BE9F0E60CF71CD6
:10051000081D191D9A01AB012A0D3B1D4C1D5D1DC7
:1005200080E090E0A0E0B0E0E614F70408051905CB
:1005300020F481E090E0A0E0B0E0BA01A901480F0A
:10054000591F6A1F7B1FAA0CBB1CCC1CDD1C97FE0D
:1005500008C081E090E0A0E0B0E0A82AB92ACA2A49
:10056000DB2A3196E032F10549F0660C771C881CD5
:10057000991C5694479437942794C3CFFA85EA89F7
:100580002B893C898B859C85280F391F2E5F3F4F17
:1005900017C0CA0181709070892B61F0169507957C
:1005A000F794E79480E090E0A0E0B0E8E82AF92A28
:1005B0000A2B1B2B76956795579547952F5F3F4FD5
:1005C00077FDE7CF0CC0440F551F661F771F17FD3F
:1005D0004160EE0CFF1C001F111F215030404030C5
:1005E00090E0590790E0690790E4790760F32B8F5A
:1005F0003C8FDB01CA018F779070A070B07080349F
:100600009105A105B10561F447FD0AC0E114F104AB
:100610000105110529F0405C5F4F6F4F7F4F407817
:100620001A8EFE1711F081E08A8F4D8F5E8F6F8FCB
:1006300078A383E0898FCE0149960E946005A09639
:10064000E2E10C945E14A8E1B0E0E9E2F3E00C947E
:100650004A1469837A838B839C832D833E834F83E3
:100660005887B9E0EB2EF12CEC0EFD1ECE01019661
:10067000B7010E9435068E010F5E1F4FCE01059611
:10068000B8010E9435062985223008F47EC03989D8
:10069000323010F4B8017CC08A859A8989278A870C
:1006A000243011F0223031F4231709F06EC060E0DD
:1006B00071E06EC0343039F41D861E861F86188A9C
:1006C0001C861B8604C0323021F484E08987B70180
:1006D0005FC02B853C858B899C89281B390B3C8707
:1006E0002B87ED84FE840F851889AD88BE88CF885E
:1006F000D88CEA14FB040C051D0540F4EE0CFF1C1D
:10070000001F111F215030403C872B8720E030E034
:1007100040E050E080E090E0A0E0B0E460E070E015
:10072000EA14FB040C051D0540F0282B392B4A2B3D
:100730005B2BEA18FB080C091D09B695A795979540
:100740008795EE0CFF1C001F111F6F5F7F4F6F31ED
:10075000710531F7DA01C9018F779070A070B07020
:1007600080349105A105B10561F427FD0AC0E114AB
:10077000F1040105110529F0205C3F4F4F4F5F4FF9
:1007800020782D873E874F87588BBE01675F7F4F4C
:10079000CB010E9460056896EAE00C946614A8E11B
:1007A000B0E0E5EDF3E00C944E1469837A838B831B
:1007B0009C832D833E834F83588789E0E82EF12C5C
:1007C000EC0EFD1ECE010196B7010E9435068E018A
:1007D0000F5E1F4FCE010596B8010E943506898530
:1007E000823040F08989823028F0C701B8010E9428
:1007F000AD0601C08FEF6896E6E00C946A14A8E19C
:10080000B0E0E5E0F4E00C944E1469837A838B83C6
:100810009C832D833E834F83588789E0E82EF12CFB
:10082000EC0EFD1ECE010196B7010E9435068E0129
:100830000F5E1F4FCE010596B8010E9435068985CF
:10084000823040F08989823028F0C701B8010E94C7
:10085000AD0601C08FEF6896E6E00C946A14A8E13B
:10086000B0E0E5E3F4E00C944E1469837A838B8363
:100870009C832D833E834F83588789E0E82EF12C9B
:10088000EC0EFD1ECE010196B7010E9435068E01C9
:100890000F5E1F4FCE010596B8010E94350689856F
:1008A000823040F08989823028F0C701B8010E9467
:1008B000AD0601C081E06896E6E00C946A14A8E0F9
:1008C000B0E0E5E6F4E00C944B149B01AC0183E04E
:1008D0008983DA01C9018827B7FD83959927AA275B
:1008E000BB27B82E211531054105510519F482E0C9
:1008F00089833AC08823A9F0203080E0380780E05F
:10090000480780E8580729F460E070E080E09FEC39
:1009100030C0EE24FF248701E21AF30A040B150B02
:1009200002C079018A018EE1C82ED12CDC82CB82F3
:10093000ED82FE820F831887C801B7010E9411055E
:1009400001971816190684F4082E04C0EE0CFF1C3B
:10095000001F111F0A94D2F7ED82FE820F831887C1
:10096000C81AD90ADC82CB82BA82CE0101960E94D3
:1009700060052896E9E00C946714ACE0B0E0E3EC85
:10098000F4E00C94521469837A838B839C83CE01A8
:100990000196BE016B5F7F4F0E9435068D818230CC
:1009A00061F1823050F1843021F48E81882351F13D
:1009B0002EC02F81388537FD20C06E812F31310543
:1009C0001CF06623F9F023C08EE190E0821B930BAC
:1009D00029853A854B855C8504C0569547953795A2
:1009E00027958A95D2F76623B1F0509540953095BA
:1009F00021953F4F4F4F5F4F0EC020E030E040E069
:100A000050E009C02FEF3FEF4FEF5FE704C020E059
:100A100030E040E050E8B901CA012C96E2E00C94C5
:100A20006E14EF92FF920F931F937B018C0180E075
:100A3000E81680E0F80681E0080780E0180788F4EF
:100A40008FEFE816F1040105110531F028F088E078
:100A500090E0A0E0B0E017C080E090E0A0E0B0E05F
:100A600012C080E0E81680E0F80680E0080781E028
:100A7000180728F088E190E0A0E0B0E004C080E131
:100A800090E0A0E0B0E020E230E040E050E0281B41
:100A9000390B4A0B5B0B04C016950795F794E79446
:100AA0008A95D2F7F701E85FFE4F8081281B310954
:100AB00041095109C9011F910F91FF90EF900895CD
:100AC000DF92EF92FF920F931F93FC01E480F58079
:100AD00006811781D1808081823048F480E090E0E7
:100AE000A0E1B0E0E82AF92A0A2B1B2BA5C084302C
:100AF00009F49FC0823021F4EE24FF24870105C051
:100B0000E114F1040105110519F4E0E0F0E096C0EC
:100B1000628173819FEF623879070CF05BC022E835
:100B20003FEF261B370B2A3131052CF020E030E057
:100B300040E050E02AC0B801A701022E04C076951B
:100B40006795579547950A94D2F781E090E0A0E029
:100B5000B0E004C0880F991FAA1FBB1F2A95D2F7C7
:100B60000197A109B1098E219F21A023B1230097EC
:100B7000A105B10521F081E090E0A0E0B0E09A018C
:100B8000AB01282B392B4A2B5B2BDA01C9018F775C
:100B90009070A070B07080349105A105B10539F452
:100BA00027FF09C0205C3F4F4F4F5F4F04C0215CBF
:100BB0003F4F4F4F5F4FE0E0F0E02030A0E03A07BA
:100BC000A0E04A07A0E45A0710F0E1E0F0E0790164
:100BD0008A0127C06038710564F5FB01E158FF4FB9
:100BE000D801C7018F779070A070B07080349105E4
:100BF000A105B10539F4E7FE0DC080E490E0A0E066
:100C0000B0E004C08FE390E0A0E0B0E0E80EF91E91
:100C10000A1F1B1F17FF05C016950795F794E79449
:100C2000319687E016950795F794E7948A95D1F762
:100C300005C0EE24FF248701EFEFF0E06E2F6795EB
:100C400066276795902F9F77D794DD24D7948E2FB2
:100C50008695492F462B582F5D29B701CA011F9150
:100C60000F91FF90EF90DF900895FC01DB01408130
:100C700051812281622F6F7770E0221F2227221F6D
:100C80009381892F880F822B282F30E0991F992775
:100C9000991F11969C93119721153105A9F54115BE
:100CA00051056105710511F482E037C082E89FEFBC
:100CB00013969C938E9312979A01AB0167E0220FD3
:100CC000331F441F551F6A95D1F783E08C930DC0E5
:100CD000220F331F441F551F12968D919C9113971D
:100CE000019713969C938E931297203080E03807DB
:100CF00080E0480780E4580758F314962D933D93FD
:100D00004D935C93179708952F3F310579F4411562
:100D100051056105710519F484E08C93089564FF11
:100D200003C081E08C9312C01C9210C02F5730403A
:100D300013963C932E93129783E08C9387E0440F95
:100D4000551F661F771F8A95D1F7706414964D93CF
:100D50005D936D937C93179708951F93DC01FB01BE
:100D60009C91923008F447C08081823008F443C0DF
:100D7000943051F411961C91843099F58181682F3B
:100D800070E0611B71093FC0843021F0923031F472
:100D90008230B9F18181882389F12DC011961C918F
:100DA00011978230F1F081811817D9F412962D91A4
:100DB0003C911397828193818217930794F02817AF
:100DC0003907BCF014968D919D910D90BC91A02D8A
:100DD0002481358146815781281739074A075B07E7
:100DE00018F4112341F00AC082179307A407B5072E
:100DF00040F4112319F061E070E005C06FEF7FEF60
:100E000002C060E070E0CB011F910895DF93CF93A3
:100E100000D000D000D0CDB7DEB78A836B834C837F
:100E200081E089838A81883008F0D4C08B81282FA3
:100E300030E03E832D838D819E8181309105A9F123
:100E40002D813E81223031052CF48D819E810097C9
:100E500071F0BEC02D813E812230310509F456C0AB
:100E60008D819E818330910509F481C0B1C08C8150
:100E7000813009F4B0C08C818823A9F4AAE3B0E0E2
:100E8000EAE3F0E08081482F8A81282F30E081E07A
:100E900090E0022E02C0880F991F0A94E2F7809515
:100EA00084238C9398C0198296C08C818130A1F4E0
:100EB000A7E3B0E0E7E3F0E08081482F8A81282FA4
:100EC00030E081E090E0022E02C0880F991F0A9462
:100ED000E2F7842B8C937FC08C818823A9F4A7E34D
:100EE000B0E0E7E3F0E08081482F8A81282F30E0EE
:100EF00081E090E0022E02C0880F991F0A94E2F769
:100F0000809584238C9367C0198265C08C81813061
:100F1000A1F4A4E3B0E0E4E3F0E08081482F8A810B
:100F2000282F30E081E090E0022E02C0880F991F48
:100F30000A94E2F7842B8C934EC08C818823A9F409
:100F4000A4E3B0E0E4E3F0E08081482F8A81282F19
:100F500030E081E090E0022E02C0880F991F0A94D1
:100F6000E2F7809584238C9336C0198234C08C813B
:100F70008130A1F4A1E3B0E0E1E3F0E08081482F0B
:100F80008A81282F30E081E090E0022E02C0880F95
:100F9000991F0A94E2F7842B8C931DC08C818823BF
:100FA000A9F4A1E3B0E0E1E3F0E08081482F8A8179
:100FB000282F30E081E090E0022E02C0880F991FB8
:100FC0000A94E2F7809584238C9305C0198203C0AC
:100FD000198201C01982898126960FB6F894DEBF66
:100FE0000FBECDBFCF91DF910895DF93CF9300D097
:100FF00000D000D0CDB7DEB78A836B834C8381E00D
:1010000089838A81883008F0E8C08B81282F30E0FE
:101010003E832D838D819E818130910509F448C0E6
:101020002D813E81223031052CF48D819E810097E7
:1010300071F0D1C02D813E812230310509F469C0A3
:101040008D819E818330910509F494C0C4C08C8148
:101050008130A1F4ABE3B0E0EBE3F0E08081482F16
:101060008A81282F30E081E090E0022E02C0880FB4
:10107000991F0A94E2F7842B8C93B0C08C8188234B
:10108000A9F4ABE3B0E0EBE3F0E08081482F8A8184
:10109000282F30E081E090E0022E02C0880F991FD7
:1010A0000A94E2F7809584238C9398C0198296C0A5
:1010B0008C818130A1F4A8E3B0E0E8E3F0E0808126
:1010C000482F8A81282F30E081E090E0022E02C074
:1010D000880F991F0A94E2F7842B8C937FC08C8130
:1010E0008823A9F4A8E3B0E0E8E3F0E08081482F8A
:1010F0008A81282F30E081E090E0022E02C0880F24
:10110000991F0A94E2F7809584238C9367C0198213
:1011100065C08C818130A1F4A5E3B0E0E5E3F0E0A7
:101120008081482F8A81282F30E081E090E0022ED4
:1011300002C0880F991F0A94E2F7842B8C934EC04B
:101140008C818823A9F4A5E3B0E0E5E3F0E0808199
:10115000482F8A81282F30E081E090E0022E02C0E3
:10116000880F991F0A94E2F7809584238C9336C0E8
:10117000198234C08C818130A1F4A2E3B0E0E2E3B3
:10118000F0E08081482F8A81282F30E081E090E0D4
:10119000022E02C0880F991F0A94E2F7842B8C93C9
:1011A0001DC08C818823A9F4A2E3B0E0E2E3F0E063
:1011B0008081482F8A81282F30E081E090E0022E44
:1011C00002C0880F991F0A94E2F7809584238C93BC
:1011D00005C0198203C0198201C01982898126962F
:1011E0000FB6F894DEBF0FBECDBFCF91DF9108954B
:1011F000DF93CF9300D000D00F92CDB7DEB78A83B4
:101200006B8381E089838A81282F30E03D832C83A2
:101210008C819D818130910531F12C813D8122307D
:1012200031052CF48C819D81009761F04FC02C8199
:101230003D812230310541F18C819D8183309105C2
:10124000A1F144C08B818F3F29F4EAE3F0E08FEFF6
:1012500080833DC08B81882321F4EAE3F0E0108293
:1012600036C0198234C08B818F3F29F4E7E3F0E068
:101270008FEF80832CC08B81882321F4E7E3F0E09B
:10128000108225C0198223C08B818F3F29F4E4E3AB
:10129000F0E08FEF80831BC08B81882321F4E4E38F
:1012A000F0E0108214C0198212C08B818F3F29F4A4
:1012B000E1E3F0E08FEF80830AC08B81882321F483
:1012C000E1E3F0E0108203C0198201C01982898134
:1012D0000F900F900F900F900F90CF91DF91089586
:1012E000DF93CF9300D000D00F92CDB7DEB78A83C3
:1012F0006B8381E089838A81282F30E03D832C83B2
:101300008C819D8181309105D1F02C813D812230ED
:1013100031052CF48C819D81009761F01FC02C81D8
:101320003D812230310581F08C819D818330910592
:1013300081F014C0EBE3F0E08B81808310C0E8E320
:10134000F0E08B8180830BC0E5E3F0E08B8180834C
:1013500006C0E2E3F0E08B81808301C019828981BD
:101360000F900F900F900F900F90CF91DF910895F5
:10137000DF93CF93CDB7DEB727970FB6F894DEBFD4
:101380000FBECDBF8A836B835D834C8381E08983ED
:101390008A81883008F078C08C819D8182309105E7
:1013A00009F472C08B81282F30E03F832E834E8159
:1013B0005F814130510559F18E819F8182309105C5
:1013C00034F42E813F812115310569F05CC04E81D6
:1013D0005F814230510579F18E819F818330910583
:1013E00009F43DC050C0E9E3F0E08081282F30E0EF
:1013F0008A81882F90E0A90102C0559547958A956A
:10140000E2F7CA018170EC81FD8180833DC0E6E393
:10141000F0E08081282F30E08A81882F90E0A901B8
:1014200002C0559547958A95E2F7CA018170EC8113
:10143000FD81808329C0E3E3F0E08081282F30E044
:101440008A81882F90E0A90102C0559547958A9519
:10145000E2F7CA018170EC81FD81808315C0E0E371
:10146000F0E08081282F30E08A81882F90E0A90168
:1014700002C0559547958A95E2F7CA018170EC81C3
:10148000FD81808301C01982898127960FB6F89467
:10149000DEBF0FBECDBFCF91DF910895DF93CF9315
:1014A00000D000D000D0CDB7DEB78A836B834C83E9
:1014B00081E089838A81282F30E03E832D838D81CE
:1014C0009E818130910509F451C02D813E812230E9
:1014D00031052CF48D819E81009771F0F5C02D812E
:1014E0003E812230310509F47BC08D819E8183309D
:1014F000910509F4AFC0E8C08B81813059F48C812B
:10150000813041F4AAE3B0E0EAE3F0E08081806F4B
:101510008C93DBC08B81813059F48C81882341F41A
:10152000AAE3B0E0EAE3F0E080818F708C93CDC055
:101530008B81823059F48C81813041F4AAE3B0E090
:10154000EAE3F0E080818F608C93BFC08B818230B2
:1015500059F48C81882341F4AAE3B0E0EAE3F0E097
:101560008081807F8C93B1C01982AFC08B81813024
:1015700059F48C81813041F4A7E3B0E0E7E3F0E077
:101580008081806F8C93A1C08B81813059F48C81D4
:10159000882341F4A7E3B0E0E7E3F0E080818F70B7
:1015A0008C9393C08B81823059F48C81813041F4CB
:1015B000A7E3B0E0E7E3F0E080818F608C9385C023
:1015C0008B81823059F48C81882341F4A7E3B0E009
:1015D000E7E3F0E08081807F8C9377C0198275C04B
:1015E0008B81813059F48C81813041F4A4E3B0E0E7
:1015F000E4E3F0E08081806F8C9367C08B81813061
:1016000059F48C81882341F4A4E3B0E0E4E3F0E0F2
:1016100080818F708C9359C08B81823059F48C817A
:10162000813041F4A4E3B0E0E4E3F0E080818F6036
:101630008C934BC08B81823059F48C81882341F488
:10164000A4E3B0E0E4E3F0E08081807F8C933DC0D0
:1016500019823BC08B81813059F48C81813041F4F7
:10166000A1E3B0E0E1E3F0E08081806F8C932DC0D6
:101670008B81813059F48C81882341F4A1E3B0E05F
:10168000E1E3F0E080818F708C931FC08B8182300A
:1016900059F48C81813041F4A1E3B0E0E1E3F0E062
:1016A00080818F608C9311C08B81823059F48C8142
:1016B000882341F4A1E3B0E0E1E3F0E08081807FA2
:1016C0008C9303C0198201C01982898126960FB6B6
:1016D000F894DEBF0FBECDBFCF91DF910895DF93A9
:1016E000CF9300D000D000D0CDB7DEB78A836B8314
:1016F0004C8381E089838A81282F30E03E832D83CB
:101700008D819E818130910509F44DC02D813E81EE
:10171000223031052CF48D819E81009771F0DFC05D
:101720002D813E812230310509F471C08D819E8169
:101730008330910509F49FC0D2C08B818130D9F4E8
:1017400080EF8C83ABE3B0E0EBE3F0E080818F705F
:101750008C93ABE3B0E0EBE3F0E08081282F8C8149
:10176000882F90E082959295907F9827807F982788
:10177000822B8C93B5C08B81823099F48C818F70D1
:101780008C83ABE3B0E0EBE3F0E08081807F8C936F
:10179000ABE3B0E0EBE3F0E090818C81892B8C939C
:1017A0009FC019829DC08B818130C9F4A8E3B0E04D
:1017B000E8E3F0E080818F708C93A8E3B0E0E8E389
:1017C000F0E08081282F8C81882F90E0829592957F
:1017D000907F9827807F9827822B8C9381C08B8164
:1017E000823099F48C818F708C83A8E3B0E0E8E3B9
:1017F000F0E08081807F8C93A8E3B0E0E8E3F0E044
:1018000090818C81892B8C936BC0198269C08B81EC
:101810008130C9F4A5E3B0E0E5E3F0E080818F70AA
:101820008C93A5E3B0E0E5E3F0E08081282F8C8184
:10183000882F90E082959295907F9827807F9827B7
:10184000822B8C934DC08B81823099F48C818F7068
:101850008C83A5E3B0E0E5E3F0E08081807F8C93AA
:10186000A5E3B0E0E5E3F0E090818C81892B8C93D7
:1018700037C0198235C08B818130C9F4A2E3B0E052
:10188000E2E3F0E080818F708C93A2E3B0E0E2E3CA
:10189000F0E08081282F8C81882F90E082959295AE
:1018A000907F9827807F9827822B8C9319C08B81FB
:1018B000823099F48C818F708C83A2E3B0E0E2E3F4
:1018C000F0E08081807F8C93A2E3B0E0E2E3F0E07F
:1018D00090818C81892B8C9303C0198201C019825D
:1018E000898126960FB6F894DEBF0FBECDBFCF918B
:1018F000DF910895DF93CF93CDB7DEB7AFE5B0E0CA
:10190000EFE5F0E0808180688C93CF91DF910895BE
:10191000DF93CF93CDB7DEB7AFE5B0E0EFE5F0E012
:1019200080818F778C93CF91DF910895DF93CF9350
:10193000CDB7DEB72C970FB6F894DEBF0FBECDBF84
:101940000E94DF0C0E94930D0E94B00DDC01CB01C0
:10195000BC01CD010E945300DC01CB0189839A8335
:10196000AB83BC8389819A81AB81BC819C01AD0131
:1019700060E070E080E090E02D833E834F835887E5
:1019800069877A878B879C8789819A81AB81BC81A3
:1019900084319105A105B10540F00E946D1085E0EC
:1019A00061E040E00E94F507CFCF85E061E041E0D3
:1019B0000E94F5070E94A7120E94B212C5CFDF93C2
:1019C000CF93CDB7DEB72E970FB6F894DEBF0FBE1C
:1019D000CDBFAFE4B0E0EFE4F0E0808180688C93AD
:1019E000AFE4B0E0EFE4F0E0808180628C93AFE49C
:1019F000B0E0EFE4F0E0808182608C93AEE4B0E090
:101A0000EEE4F0E0808180618C93AEE4B0E0EEE43F
:101A1000F0E0808188608C93AEE4B0E0EEE4F0E02A
:101A2000808182608C9380E090E8ABE3B5E48B87A3
:101A30009C87AD87BE876B857C858D859E8520E0E4
:101A400030E04AE755E40E942902DC01CB018F8394
:101A50009887A987BA876F81788589859A8520E0DC
:101A600030E040E85FE30E942F0488232CF481E0FB
:101A700090E09E838D833FC06F81788589859A85AC
:101A800020E03FEF4FE757E40E94CF0318164CF5D4
:101A90006B857C858D859E8520E030E040E251E4B9
:101AA0000E942902DC01CB01BC01CD010E94530040
:101AB000DC01CB019E838D830FC080E991E09C8384
:101AC0008B838B819C810197F1F79C838B838D8124
:101AD0009E8101979E838D838D819E81009769F7FA
:101AE00014C06F81788589859A850E945300DC0136
:101AF000CB019E838D838D819E819A838983898189
:101B00009A810197F1F79A83898383E063E041E04A
:101B10000E9406072E960FB6F894DEBF0FBECDBF0B
:101B2000CF91DF910895DF93CF93CDB7DEB7A9E5CD
:101B3000B0E0E9E5F0E0808180628C930E947A0C4D
:101B4000EFE4F0E0108281E061E041E00E940607EE
:101B500082E061E040E00E940607CF91DF910895A6
:101B6000EF92FF920F931F93DF93CF93CDB7DEB722
:101B7000E2970FB6F894DEBF0FBECDBFAAE4B0E087
:101B8000E6E4F0E08081918188529A4011969C931E
:101B90008E9381E061E040E00E94F50780E090E0F4
:101BA000A0E0B0E48FA398A7A9A7BAA76FA178A5D2
:101BB00089A59AA520E030E04AE755E40E94290271
:101BC000DC01CB018BA39CA3ADA3BEA36BA17CA125
:101BD0008DA19EA120E030E040E85FE30E942F0449
:101BE00088232CF481E090E09AA389A33FC06BA1E5
:101BF0007CA18DA19EA120E03FEF4FE757E40E941A
:101C0000CF0318164CF56FA178A589A59AA520E0F9
:101C100030E040E251E40E942902DC01CB01BC012A
:101C2000CD010E945300DC01CB019AA389A30FC010
:101C300080E991E098A38F8F8F8D98A10197F1F79C
:101C400098A38F8F89A19AA101979AA389A389A1AB
:101C50009AA1009769F714C06BA17CA18DA19EA1E8
:101C60000E945300DC01CB019AA389A389A19AA108
:101C70009E8F8D8F8D8D9E8D0197F1F79E8F8D8F0D
:101C800081E061E041E00E94F50780E090E0A0E2A1
:101C9000B1E4898F9A8FAB8FBC8F698D7A8D8B8DD4
:101CA0009C8D20E030E04AE755E40E942902DC01E7
:101CB000CB018D8B9E8BAF8BB88F6D897E898F8981
:101CC000988D20E030E040E85FE30E942F048823F5
:101CD0002CF481E090E09C8B8B8B3FC06D897E89DA
:101CE0008F89988D20E03FEF4FE757E40E94CF03A4
:101CF00018164CF5698D7A8D8B8D9C8D20E030E027
:101D000040E251E40E942902DC01CB01BC01CD017B
:101D10000E945300DC01CB019C8B8B8B0FC080E9B0
:101D200091E09A8B898B89899A890197F1F79A8B2F
:101D3000898B8B899C8901979C8B8B8B8B899C8948
:101D4000009769F714C06D897E898F89988D0E94EC
:101D50005300DC01CB019C8B8B8B8B899C89988BEE
:101D60008F878F8598890197F1F7988B8F8781E00E
:101D700061E040E00E94F50780E090E0A0E0B0E480
:101D80008B879C87AD87BE876B857C858D859E857F
:101D900020E030E04AE755E40E942902DC01CB0153
:101DA0008F839887A987BA876F81788589859A8577
:101DB00020E030E040E85FE30E942F0488232CF409
:101DC00081E090E09E838D833FC06F817885898517
:101DD0009A8520E03FEF4FE757E40E94CF031816A3
:101DE0004CF56B857C858D859E8520E030E040E25A
:101DF00051E40E942902DC01CB01BC01CD010E940B
:101E00005300DC01CB019E838D830FC080E991E0FC
:101E10009C838B838B819C810197F1F79C838B83BF
:101E20008D819E8101979E838D838D819E810097F8
:101E300069F714C06F81788589859A850E9453005F
:101E4000DC01CB019E838D838D819E819A83898362
:101E500089819A810197F1F79A838983EDE4F0E013
:101E600011821082EEE4F0E081E48083A8E5B0E026
:101E7000E8E5F0E080818F7D8C93A8E5B0E0E8E5AF
:101E8000F0E080818B7F8C93E8E5F0E080818295A3
:101E900086958770882F90E0817090700097A1F3ED
:101EA000EDE4F0E011821082EEE4F0E081E0808366
:101EB000A8E5B0E0E8E5F0E080818F7D8C93A8E5AF
:101EC000B0E0E8E5F0E080818B7F8C9310920E0209
:101ED000E8E5F0E08081829586958770882F90E014
:101EE000817090700097A1F3E6E4F0E08081918129
:101EF0007C0100E010E080910E02882F90E0A0E0CD
:101F0000B0E02FEF3FEF40E050E0BC01CD010E9478
:101F10002314DC01CB018E0D9F1DA01FB11FBC013E
:101F2000CD010E945F04DC01CB018FA798ABA9AB68
:101F3000BAAB6FA578A989A99AA929E23CE349EE31
:101F400053E40E942303DC01CB018BA79CA7ADA720
:101F5000BEA78BA59CA5ADA5BEA5BC01CD01E296F3
:101F60000FB6F894DEBF0FBECDBFCF91DF911F91AA
:101F70000F91FF90EF900895DF93CF9300D000D0A2
:101F8000CDB7DEB79A838983EAE4F0E08FEF90E083
:101F900091838083E8E4F0E08FEF90E09183808389
:101FA0000F900F900F900F90CF91DF910895DF93D6
:101FB000CF93CDB7DEB786E063E041E00E94F5073E
:101FC00087E063E040E00E94F507CF91DF9108953C
:101FD000DF93CF93CDB7DEB786E063E040E00E94A9
:101FE000F50787E063E041E00E94F507CF91DF91BC
:101FF0000895DF93CF93CDB7DEB786E063E040E08E
:102000000E94F50787E063E040E00E94F507CF916A
:10201000DF910895DF93CF93CDB7DEB783E063E020
:1020200040E00E94F50784E063E041E00E94F5078C
:10203000CF91DF910895DF93CF93CDB7DEB784E0E2
:1020400063E040E00E94F50783E063E041E00E9426
:10205000F507CF91DF910895DF93CF93CDB7DEB72A
:1020600084E063E040E00E94F50783E063E040E045
:102070000E94F507CF91DF910895DF93CF93CDB7FD
:10208000DEB7EAE4F0E08FEF90E091838083CF91B8
:10209000DF910895DF93CF93CDB7DEB7EAE4F0E0A8
:1020A00011821082CF91DF910895DF93CF93CDB746
:1020B000DEB7E8E4F0E08FEF90E091838083CF918A
:1020C000DF910895DF93CF93CDB7DEB7E8E4F0E07A
:1020D00011821082CF91DF910895DF93CF93CDB716
:1020E000DEB70E94D70F0E940A10CF91DF910895AA
:1020F000DF93CF93CDB7DEB72E970FB6F894DEBF40
:102100000FBECDBF0E94E80F0E941B1080E090E040
:10211000AAEFB3E48B879C87AD87BE876B857C85F0
:102120008D859E8520E030E04AE755E40E94290233
:10213000DC01CB018F839887A987BA876F81788567
:1021400089859A8520E030E040E85FE30E942F0413
:1021500088232CF481E090E09E838D833FC06F81C3
:10216000788589859A8520E03FEF4FE757E40E9404
:10217000CF0318164CF56B857C858D859E8520E0F8
:1021800030E040E251E40E942902DC01CB01BC01B5
:10219000CD010E945300DC01CB019E838D830FC0D3
:1021A00080E991E09C838B838B819C810197F1F77F
:1021B0009C838B838D819E8101979E838D838D81EE
:1021C0009E81009769F714C06F81788589859A850B
:1021D0000E945300DC01CB019E838D838D819E8103
:1021E0009A83898389819A810197F1F79A838983F8
:1021F0002E960FB6F894DEBF0FBECDBFCF91DF9104
:102200000895DF93CF93CDB7DEB72E970FB6F8942E
:10221000DEBF0FBECDBF0E94D70F0E941B1080E013
:1022200090E0AAEFB3E48B879C87AD87BE876B8570
:102230007C858D859E8520E030E04AE755E40E944C
:102240002902DC01CB018F839887A987BA876F8128
:10225000788589859A8520E030E040E85FE30E9438
:102260002F0488232CF481E090E09E838D833FC06F
:102270006F81788589859A8520E03FEF4FE757E4A5
:102280000E94CF0318164CF56B857C858D859E8545
:1022900020E030E040E251E40E942902DC01CB0161
:1022A000BC01CD010E945300DC01CB019E838D83D4
:1022B0000FC080E991E09C838B838B819C81019787
:1022C000F1F79C838B838D819E8101979E838D8303
:1022D0008D819E81009769F714C06F81788589850B
:1022E0009A850E945300DC01CB019E838D838D81F2
:1022F0009E819A83898389819A810197F1F79A83D4
:1023000089832E960FB6F894DEBF0FBECDBFCF9156
:10231000DF910895DF93CF93CDB7DEB72E970FB639
:10232000F894DEBF0FBECDBF0E94F90F0E940A10C5
:1023300080E090E0AAEFB3E48B879C87AD87BE87EF
:102340006B857C858D859E8520E030E04AE755E4ED
:102350000E942902DC01CB018F839887A987BA8765
:102360006F81788589859A8520E030E040E85FE3D9
:102370000E942F0488232CF481E090E09E838D83BB
:102380003FC06F81788589859A8520E03FEF4FE7D0
:1023900057E40E94CF0318164CF56B857C858D851C
:1023A0009E8520E030E040E251E40E942902DC01F9
:1023B000CB01BC01CD010E945300DC01CB019E8307
:1023C0008D830FC080E991E09C838B838B819C81FE
:1023D0000197F1F79C838B838D819E8101979E836A
:1023E0008D838D819E81009769F714C06F817885F8
:1023F00089859A850E945300DC01CB019E838D83E1
:102400008D819E819A83898389819A810197F1F7D1
:102410009A8389832E960FB6F894DEBF0FBECDBF88
:10242000CF91DF910895DF93CF93CDB7DEB72E978D
:102430000FB6F894DEBF0FBECDBF0E94D70F0E942B
:102440002C1080E090E0AAEFB3E48B879C87AD87E7
:10245000BE876B857C858D859E8520E030E04AE7D0
:1024600055E40E942902DC01CB018F839887A9875C
:10247000BA876F81788589859A8520E030E040E8C9
:102480005FE30E942F0488232CF481E090E09E8378
:102490008D833FC06F81788589859A8520E03FEFE5
:1024A0004FE757E40E94CF0318164CF56B857C85E7
:1024B0008D859E8520E030E040E251E40E942902B3
:1024C000DC01CB01BC01CD010E945300DC01CB013A
:1024D0009E838D830FC080E991E09C838B838B81E9
:1024E0009C810197F1F79C838B838D819E8101975D
:1024F0009E838D838D819E81009769F714C06F81C3
:10250000788589859A850E945300DC01CB019E83E2
:102510008D838D819E819A83898389819A81019798
:10252000F1F79A8389832E960FB6F894DEBF0FBE1B
:10253000CDBFCF91DF910895DF93CF93CDB7DEB7B5
:102540000E943D100E945510CF91DF910895DF93B6
:10255000CF93CDB7DEB70E94F90F0E942C10CF9118
:10256000DF910895DF93CF93CDB7DEB7A8970FB66D
:10257000F894DEBF0FBECDBFAAE4B0E0E6E4F0E021
:1025800080819181885D9E4011969C938E9380E01E
:1025900090E0AAEFB4E4898F9A8FAB8FBC8F698DDE
:1025A0007A8D8B8D9C8D20E030E04AE755E40E94C7
:1025B0002902DC01CB018D8B9E8BAF8BB88F6D898F
:1025C0007E898F89988D20E030E040E85FE30E94AB
:1025D0002F0488232CF481E090E09C8B8B8B3FC0F0
:1025E0006D897E898F89988D20E03FEF4FE757E412
:1025F0000E94CF0318164CF5698D7A8D8B8D9C8DBA
:1026000020E030E040E251E40E942902DC01CB01ED
:10261000BC01CD010E945300DC01CB019C8B8B8B54
:102620000FC080E991E09A8B898B89899A890197FB
:10263000F1F79A8B898B8B899C8901979C8B8B8B6B
:102640008B899C89009769F714C06D897E898F8971
:10265000988D0E945300DC01CB019C8B8B8B8B8966
:102660009C89988B8F878F8598890197F1F7988B34
:102670008F870E94B00DDC01CB0189A39AA3ABA385
:10268000BCA389A19AA1ABA1BCA18DA39EA3AFA31A
:10269000B8A7AAE4B0E0E6E4F0E080819181845A32
:1026A000964011969C938E9380E090E0AAEFB4E45C
:1026B0008B879C87AD87BE876B857C858D859E8546
:1026C00020E030E04AE755E40E942902DC01CB011A
:1026D0008F839887A987BA876F81788589859A853E
:1026E00020E030E040E85FE30E942F0488232CF4D0
:1026F00081E090E09E838D833FC06F8178858985DE
:102700009A8520E03FEF4FE757E40E94CF03181669
:102710004CF56B857C858D859E8520E030E040E220
:1027200051E40E942902DC01CB01BC01CD010E94D1
:102730005300DC01CB019E838D830FC080E991E0C3
:102740009C838B838B819C810197F1F79C838B8386
:102750008D819E8101979E838D838D819E810097BF
:1027600069F714C06F81788589859A850E94530026
:10277000DC01CB019E838D838D819E819A83898329
:1027800089819A810197F1F79A8389830E94B00D1C
:10279000DC01CB0189A39AA3ABA3BCA389A19AA115
:1027A000ABA1BCA18D8F9E8FAF8FB8A36D8D7E8D99
:1027B0008F8D98A12DA13EA14FA158A50E94CB01BC
:1027C000DC01CB01BC01CD0120E030E040EE50E463
:1027D0000E942F0488236CF48CEB92E00E94781006
:1027E0008CEB92E00E948A1184EF91E00E9401112B
:1027F00021C06D8D7E8D8F8D98A12DA13EA14FA101
:1028000058A50E942F0488232CF484EF91E00E94A5
:10281000131210C06DA17EA18FA198A52D8D3E8DA4
:102820004F8D58A10E942F04882324F484EF91E057
:102830000E948A11A8960FB6F894DEBF0FBECDBFD6
:10284000CF91DF910895629FD001739FF001829F25
:10285000E00DF11D649FE00DF11D929FF00D839F2F
:10286000F00D749FF00D659FF00D9927729FB00DCC
:10287000E11DF91F639FB00DE11DF91FBD01CF01DF
:10288000112408952F923F924F925F926F927F9200
:102890008F929F92AF92BF92CF92DF92EF92FF9270
:1028A0000F931F93CF93DF93CDB7DEB7CA1BDB0B1C
:1028B0000FB6F894DEBF0FBECDBF09942A883988C1
:1028C00048885F846E847D848C849B84AA84B984C8
:1028D000C884DF80EE80FD800C811B81AA81B981D4
:1028E000CE0FD11D0FB6F894DEBF0FBECDBFED01E8
:0628F0000895F894FFCFEB
:1028F60000000000000000000001020203030303C1
:102906000404040404040404050505050505050579
:102916000505050505050505060606060606060659
:102926000606060606060606060606060606060641
:102936000606060606060606070707070707070729
:102946000707070707070707070707070707070711
:102956000707070707070707070707070707070701
:1029660007070707070707070707070707070707F1
:1029760007070707070707070808080808080808D9
:1029860008080808080808080808080808080808C1
:1029960008080808080808080808080808080808B1
:1029A60008080808080808080808080808080808A1
:1029B6000808080808080808080808080808080891
:1029C6000808080808080808080808080808080881
:1029D6000808080808080808080808080808080871
:1029E6000808080808080808080808080808080861
:0E29F60008080808080808088713FF00FF00FB
:00000001FF
